:020000040800F2
:10000000A8170020C53E0008A5180008A71800087A
:10001000A9180008AB180008AD180008000000007F
:10002000000000000000000000000000AF18000801
:10003000B118000800000000B3180008B518000847
:10004000DF3E0008DF3E0008DF3E00083D2F0008CD
:10005000DF3E0008DF3E0008DF3E0008DF3E00080C
:10006000DF3E0008DF3E0008DF3E0008DF3E0008FC
:10007000DF3E0008DF3E0008DF3E0008DF3E0008EC
:10008000DF3E0008DF3E0008DF3E0008DF3E0008DC
:10009000DF3E0008DF3E0008DF3E0008DF3E0008CC
:1000A000DF3E0008DF3E0008DF3E0008DF3E0008BC
:1000B000DF3E000853330008DF3E0008DF3E000843
:1000C000DF3E0008DF3E0008DF3E0008DF3E00089C
:1000D000DF3E00086768000895310008DF3E000831
:1000E000DF3E0008DF3E0008DF3E0008DF3E00087C
:1000F000DF3E0008DF3E0008DF3E0008DF3E00086C
:10010000DF3E0008DF3E0008DF3E0008DF3E00085B
:10011000DF3E0008DF3E0008DF3E0008DF3E00084B
:10012000DF3E0008DF3E0008DF3E0008DF3E00083B
:10013000DFF80CD006F0C4FE004800472D1400087C
:10014000A81700203EB501F06AFC18240025FEA087
:100150008DE83100234680220A21142001F0F6FFA9
:1001600001F020FC02F0B7FCFAA08DE83100182362
:1001700080220A21142001F0E9FF01F013FCBDE800
:100180003E4040F2DC5003F0EFBD3EB501F047FCCD
:1001900010240025F2A08DE831002346802214218E
:1001A0001E2001F0D3FF01F0FDFB02F0D3FCEFA015
:1001B0008DE831001023802214211E2001F0C6FF9B
:1001C00000223021382002F020F801F0EBFBBDE8DE
:1001D0003E404FF47A7003F0C7BD3EB501F01FFCFE
:1001E00000250C24E4A08DE8310023468022294616
:1001F000284601F0ABFFE4A08DE831000C238022FB
:100200003421002001F0A2FF01F0CCFBBDE83E400C
:1002100040F6B83003F0A8BD2DE9F04F8FB00020B4
:1002200004460D90DB48B0F804B090F806A0C679FB
:10023000077A90F8009090F80180857801F0EFFB44
:100240000C210022D4A08DE807000B468022262135
:10025000622001F07BFF0C210022D0A08DE8070076
:100260000B4680223421002001F070FF01F09AFB40
:100270000D98401C80B20D9002F042FA0C280FD06D
:1002800000210D9AA2F53063B83B07D0002211433C
:1002900008D001F0C4FB0FB0BDE8F08F0122F6E7F3
:1002A0000121EEE70D2828D1072C26D2DFE804F043
:1002B000040A1013161C2200B9F1000F5BD0A9F13B
:1002C000010029E0B8F1000F55D0A8F101002BE0A2
:1002D00025B36D1E2EE00FB37F1E30E0BBF1000F83
:1002E00049D0ABF1010032E0BAF1000F43D0AAF1DE
:1002F000010034E096B1761E37E00E2837D1072C86
:1003000035D2DFE804F0040C14191E272F00B9F1D0
:10031000170F30D209F1010000F0FF092BE0B8F10E
:100320003B0F28D208F1010000F0FF0823E03B2D2D
:1003300021D26D1CEDB21EE0072F1CD27F1CFFB234
:1003400019E040F633018B4515D20BF101001FFA7D
:1003500080FB10E0BAF10C0F0DD20AF1010000F0A1
:10036000FF0A08E01F2E06D2761CF6B203E00F2823
:1003700009D0102875D00D98FA21B0FBF1F201FBDD
:10038000120038B11BE0072C00DA641C072CF2D1F4
:100390000024F0E7072C10D2DFE804F004091A1F4C
:1003A00024292E001823002181A2084603E01823E7
:1003B0007FA20021242001F020FC01F0F3FA0D9827
:1003C0004FF4FA71B0FBF1F201FB1200C8B143E047
:1003D0001823002176A24820EDE70C2375A21946C8
:1003E0006E20E8E70C231A2173A24420E3E70C23D4
:1003F0001A216FA26220DEE70C231A216CA274205E
:10040000D9E700200D9043464A466DA1009503A808
:1004100006F068FE0021182303AA084601F0EDFB50
:1004200053465A466AA103A8009606F05BFE0C23C9
:1004300003AA1A21442001F0E0FB694869A150F8A1
:10044000272003A806F04EFE0C2303AA19466E20AF
:1004500001F0D3FB01F0A6FA012003F085FC07E7C9
:10046000FFE7CDE900854B4632465146584602F03B
:100470009AFC01F0D4FA102100225BA08DE807005D
:100480000B4680223021142001F060FE01F08AFA30
:100490004FF47A7003F068FCFDE62DE9F04F55A0AB
:1004A0008BB0D0E90010CDE9031052A00026D0E9AE
:1004B0000010CDE9081034463746354601F0AFFA52
:1004C0004FF00C094DA2CDE90029B0464B46CDF8BE
:1004D0000880802210210A2001F038FE4BA2CDE9CD
:1004E00000290C23CDF8088080221C210A2001F06D
:1004F0002DFE4AA2CDE900290C23CDF808808022E8
:1005000028210A2001F022FE48A2CDE900290C236F
:10051000CDF80880802234210A2001F017FE4FF028
:10052000100946A2CDE900294B46CDF8088080226B
:100530000021052001F00AFE012242A105A806F0D3
:10054000D1FD05AA10237FE0BDE2CBF8D6D02E2E38
:100550002E000000D2D1BDE2CBF8A3A10000000024
:10056000CBF8B6A8D6D0A3A100000000D2D1CBF81A
:10057000B6A8A3A100000000D6C7C4DCC4DCC3C574
:10058000CBF8CFB5CDB30000323032312D31312D23
:1005900032352000FC0400203C2D2D00BCF520202D
:1005A000BCD3202020C7D0BBBB2020C8B7B6A80032
:1005B000202000002020200020202020000000001B
:1005C000253032643A253032643A253032640000F6
:1005D000253034642D253032642D253032640000FE
:1005E0001400002025730000C9E8D6C3B3C9B9A61A
:1005F000A3A1000020202020202000002031202066
:10060000203220202033202042636B002034202021
:10061000203520202036202044656C002037202003
:10062000203820202039202044697300436C722038
:100630002030202043686720204F4B00D0C2C3DC0D
:10064000C2EB000025643A00CDE90029CDF808800E
:1006500080223021052001F079FD01F0A3F90DF190
:100660000C080DF120094FF02A0ADFF8C8B402F097
:1006700047F8411C4CD0012100258BF800101128AF
:1006800046D2DFE800F0450909090B1010101720C9
:10069000202022274A3C6B00303005E001F0BFF9F2
:1006A0004FF4FA707EE02F3008F8040009F804A037
:1006B000641C36E0002C34DD2020641E08F80400A1
:1006C00009F804002DE02E30EEE70FB1002728E0F6
:1006D000012726E0721CAFF2940105A806F002FD86
:1006E0001021002205A88DE807000B46802230214A
:1006F000052001F02BFD0EB1002600E00126202090
:1007000041464A46641E02D308551055FAE70024B4
:100710009BF80000012804D00DE0302108F80410F7
:10072000C4E74FF00C03BFB103AA0021462001F03B
:1007300064FA01F037F96D1CADB24FF47A70B5FB75
:10074000F0F100FB1150002891D101F068F901206F
:100750008BF800000BB09FE508AAE6E7F64CF748D7
:10076000039916B3C4F80B10BDF81010A4F80F10BD
:1007700061745022214602F0A8FC211DF0A006F071
:10078000A1FC01F04CF910210022EFA08DE8070038
:100790000B4680223021002001F0D8FC01F002F944
:1007A0004FF47A7003F0E0FAD4E76160BDF81010FE
:1007B0002181A1725022E04902F087FC211DE6A0B0
:1007C000DDE70EB502F05BFF0C22CDE9000200214F
:1007D0001346029180223021002001F0B7FC01F085
:1007E000E1F84FF47A7003F0BFFA0C23DCA2302159
:1007F000002001F002FABDE80E4001F0D3B8F8B5D0
:1008000000240C250323224620214E20009501F0D0
:10081000B9F901F0C7F84FF6FF7601F071FFC0B2E9
:10082000112830D2DFE800F02F090909131515153A
:10083000202424242F3939393C00411E092922D291
:10084000632C20D204EB840100EB41001AE0304617
:10085000F8BD411E092916D2632C14D204EB840181
:1008600000EB4100401E0DE00A20B4FBF0F40AE06A
:10087000411E092907D2632C05D204EB840100EB49
:100880004100801E84B20323224620214E20009581
:1008900001F078F901F086F8BFE74FF47F40F8BD2A
:1008A0002046F8BD3EB501F0BAF81020B1A1CDE95F
:1008B000001000250346802202952946284601F0B3
:1008C00045FC0C24B0A08DE8310023468022102185
:1008D000002001F03BFCB0A08DE831000C23802209
:1008E0003421002001F032FC01F05CF8322003F0EA
:1008F0003BFAFFF784FFA0F57F41FF391ED0B0F52A
:100900007F4F1FD0012102F071FEF0B1FFF759FFB8
:1009100001F048F88748801D03F036F9864885497C
:10092000503000940088C9880323421A30216E2079
:1009300001F028F94FF4966003F016FABDE83E4046
:1009400001F06DB802F081FEDFE701F068F898A0D1
:100950008DE831000C2380221421002001F0F6FBE9
:1009600097A08DE831000C2380223021502001F027
:10097000EDFB01F017F8CBE72DE9FE4F002501F064
:100980004EF8DFF8B4B14FF0100A4FF00109DFF86C
:10099000388200260C270BF1500B01F0B1FE102815
:1009A0007ED0052D3FD2DFE805F0033F6AA2C300E9
:1009B00086A1CDE9001A641C0021E4B21023802234
:1009C0000296084601F0C2FB85A0CDE900070C2382
:1009D000802218210296002001F0B8FB84A0CDE906
:1009E00000070C23802234210296682001F0AEFB20
:1009F00000F0D8FF02F023FD78BBC8F8B4910120C5
:100A000002F037FDC8F8B46138BB7BA0CDE9000720
:100A10000C23802218210296002001F097FB00F0A1
:100A2000C1FF0024012561E177A0CDE90007641C26
:100A3000E4B20C23802218210296002001F086FBEC
:100A400000F0B0FF02F0FBFC38B9C8F8B491022006
:100A500002F00FFDC8F8B46110B1FFF7B2FE45E136
:100A60006DA0CDE900070C238022182102960020FA
:100A700001F06CFB00F096FF0024022536E169A02E
:100A8000CDE900070C23802218210296002001F0F6
:100A90005DFB00F087FF02F00AFD050019D000E0C1
:100AA0002BE166A0CDE900070C23802218210296D5
:100AB000002001F04BFB00F075FF2846FFF781FE98
:100AC000002400F0ACFF00254FF4966003F04CF9D1
:100AD0000CE15FA0CDE900070C23802218210296CB
:100AE000002001F033FB00F05DFF0325ECE75DA083
:100AF000CDE900070C23802218210296002001F086
:100B000025FB00F04FFF02F02EFD18B10025FFF786
:100B100058FED9E758A0CDE900070C238022182100
:100B20000296002001F012FB00F03CFF0425CBE709
:100B3000ACE0000000000020A000002000F0000851
:100B4000707764323D257300C3DCC2EBD0DEB8C4DD
:100B5000B3C9B9A620A3A1007077643D2573000036
:100B60002020202020202020202020202020202085
:100B7000202020003D3D3D20C9BEB3FDD6B8CEC6E5
:100B8000203D3D3D00000000CAE4C8EBD6B8CEC60B
:100B90004944A3BA00000000B7B5BBD820C7E5BFE1
:100BA000D520202020C8B7C8CFC9BEB3FD000000A3
:100BB000C9BEB3FDD6B8CEC6B3C9B9A6A3A10000BD
:100BC000CAA3D3E000000000008021423D3D3D204B
:100BD000C2BCC8EBD6B8CEC6203D3D3D00000000EB
:100BE000C7EBB0B4D6B8CEC6A3A120200000000049
:100BF000B7B5BBD800000000D6B8CEC6D5FDB3A3AC
:100C0000A3A1202020200000C7EBD4D9B0B4D2BBD0
:100C1000B4CED6B8CEC60000D6B8CEC6D5FDB3A3E6
:100C2000A3A10000B6D4B1C8C1BDB4CED6B8CEC65B
:100C3000202020202020202000000000B6D4B1C8B1
:100C4000CAA7B0DC20C7EBD6D8C2BC202020200029
:100C5000C1BDB4CED6B8CEC6D2BBD1F9202020209B
:100C600020202000C9FAB3C9D6B8CEC6C4A3B0E5C7
:100C70002E2E2E2020202000C9FAB3C9D6B8CEC609
:100C8000C4A3B0E5B3C9B9A621000000F8A0CDE91E
:100C900000070C23802218210296002001F056FA4A
:100CA000F8A0CDE900070C238022342102967A2097
:100CB00001F04CFAF4A0CDE900070C238022342186
:100CC0000296002001F042FA00F06CFE5D46FFF74C
:100CD00096FD014628888842F9D9022002F05DFC81
:100CE00078B10025FFF76DFD00F099FE4FF4C87054
:100CF00003F03AF80A2C7FF450AEBDE8FE4F00F046
:100D00008EBE00F09EFEE5A1CDE9001A10238022E0
:100D100002961E21002001F019FAE34802F034FF88
:100D2000AFF26410CDE900070C2380223421029633
:100D3000422001F00BFADC490097891FBBF8000044
:100D4000C9880323421A34215A2000F01BFF00F007
:100D500029FE40F2DC5003F007F8CEE72DE9F04F12
:100D6000D24E002493B096F84F00002850D000F0E7
:100D700056FEDFF834A3DFF8389340F2E93BAAF1DE
:100D8000060AA046641C5C4538D196F84F00002442
:100D9000002840D0012089F80000BAF804004F462E
:100DA000401C80B25546AAF80400642807D304F01A
:100DB00058FEA5F8048087F8008005F093FC102702
:100DC000BCA0CDE9000745463B4680223946CDF818
:100DD0000880002001F0BAF996F84F20BAA103A8C4
:100DE00006F080F903A8CDE9000710238022202116
:100DF0000295142001F0AAF900F0D4FD012002F0C0
:100E0000B3FF01F07DFC0428BCD100F008FE0120F6
:100E100013B0BDE8F08F89F8008000F000FEF7E71E
:100E20002DE9F04FACA089B007C803AB002483E8DC
:100E30000700A9A006AB07C883E807002746264697
:100E4000254600F0ECFDFFF789FF20B1964901200F
:100E5000891F48709FE000F0E2FD1021A1A2CDE9BA
:100E600000214FF000080B46CDF808808022414653
:100E7000052001F06BF94FF00C09AFF68002CDE9C7
:100E800000294B46CDF80880802210210A2001F06D
:100E90005DF9AFF68802CDE900290C23CDF8088072
:100EA00080221C210A2001F051F9AFF69002CDE911
:100EB00000290C23CDF80880802228210A2001F087
:100EC00045F98AA2CDE900290C23CDF808808022BB
:100ED00034210A2001F03AF900F064FD0DF11809FF
:100EE0004FF02A0A0DF10C0801F00AFC411CFBD05E
:100EF0006D490122891F4FF0000B0A70112833D26F
:100F0000DFE800F0320909090B121212192222221D
:100F1000242C4D2C5300303007E000F080FD4FF4BE
:100F2000FA7002F021FF36E02F3008F8040009F8CB
:100F300004A0641C19E0002C17DD2020641E08F8B2
:100F4000040009F8040010E02E30EEE70FB100278E
:100F50000BE0012709E00855185502E020204B4618
:100F60004146641EF7D200244AB14FF00C03D7B1BA
:100F700003AA0021352000F040FE00F013FD0BF124
:100F800001004FF47A71B0FBF1F201FB120000286E
:100F9000AAD100F044FD4FF0FF3009B039E730210D
:100FA00008F80410C3E706AAE3E7404C00204146D6
:100FB000A3190A5C1B799A4204D1761CB6B2062E9C
:100FC00004D000E00026401C0A28F1DB0020631951
:100FD0000A5CDB7A9A4204D16D1CADB2062D04D0B6
:100FE00000E00025401C0A28F1DB062E0DD0002071
:100FF000062D0CD0002108430BD0FFF7A3F800F01A
:101000000EFD002084F84E00C7E70120F0E7012123
:10101000F1E794F84E00401CC0B284F84E0002285C
:1010200002D91E2084F84F0000F0F9FC10210022A4
:1010300032A08DE807000B46802230212D2001F0E0
:1010400085F800F0AFFC01F0E4FD40F2DC5002F066
:101050008BFE9EE770B5C4B0FFF780FE4FF0FF3403
:1010600020B111490120891F48708BE04CE000003D
:10107000C7EBCAE4C8EBB4A2B4E649443A20202046
:101080002020202020000000C9BEB3FD20C7E5BFFE
:10109000D5202020202020C8B7C8CF00C2BCD6B899
:1010A000CEC6B3C9B9A6210006000020A0000020CA
:1010B0008D000020C3DCC2EBB4EDCEF3B4CECAFD8C
:1010C000B9FDB6E000000000C7EB25303264C3EB89
:1010D000BAF3D6D8CAD40000202020202020202017
:1010E00020200000C3DCC2EBA3BA0000436C7220D6
:1010F00020302020436C7220204F4B00C3DCC2EB19
:10110000B4EDCEF3A3A1000002F099F9064600F079
:1011100098FC1020FEA1CDE9001000250346802296
:1011200002952946284601F011F800F03BFC4EBB21
:10113000012002F09EF940B1FFF743FB00F032FCC2
:101140004FF4FA6002F010FE1AE0F54843AB0021BC
:101150000288012002F0D7FCB8B1F14A503A92F867
:101160004E10491CC9B282F84E10022902D91E2124
:1011700082F84F10FFF725FB00F014FC01F049FD49
:1011800000F04DFC204644B070BD00F05AFC18241D
:10119000AFF64C408DE83100234680220A2114200E
:1011A00000F0D4FF00F0FEFB01F095FCAFF65C40D0
:1011B0008DE83100182380220A21142000F0C6FF98
:1011C00000F0F0FB01221221702001F01EF8BDF8A2
:1011D0000C21D4A103A805F085FF0C2403AE0096D2
:1011E0002346802234210020CDE9014500F0AEFFE6
:1011F000BDF80E21D0A103A805F074FF00960C23C2
:10120000802234216020CDE9014500F09FFF00F0ED
:10121000C9FB4FF4E16002F0A7FD00F000FC0020E4
:10122000B1E730B5C54C8BB0A078C54DA9788842E0
:1012300031D0A078A870A078009063782278AFF6BB
:10124000804101A805F04EFF0021182301AA08469D
:1012500000F0D3FCE0790090A379A288AFF690412A
:1012600001A805F03FFF0C2301AA1A21442000F039
:10127000C4FC207A05F1140151F82020AFF224714A
:1012800001A805F02FFF0C2301AA19466E2000F0DB
:10129000B4FC012028700BB030BD70B5A049A94E38
:1012A00050225039304601F004FF9D4CA64D503C71
:1012B0002068A84214D05021204605F066FBA3A167
:1012C000201D256005F0AFFBA2A104F10B0005F085
:1012D000AAFB50222146304601F0F7FE9FA000E015
:1012E000A3A0BDE8704005F0EDBE2DE9F04194B03B
:1012F0001020A4A1CDE90010002426460346802238
:1013000002940C2100F022FF00F04CFB40F6B830B4
:1013100002F02AFD00F083FB0C259EA08DE8610001
:1013200000212B468022084600F010FF9EA08DE889
:1013300061000C2380221946002000F007FF00F016
:1013400031FB4FF4C8774FF4487822E0641CE4B2D4
:101350000A2C25D8384602F007FD98A08DE86100D8
:101360000C2380221821002000F0F0FE00F01AFB70
:10137000404602F0F9FC96A08DE861000C23802223
:101380001821002000F0E2FE96A005F09BFE00F080
:1013900009FB9A4802F028FC0028D7D10A2C08D96A
:1013A00097A08DE861000C2380221821002000F016
:1013B000CDFE00F0F7FA91484FF4614294A1036822
:1013C00003A805F08FFE03AC8DE870000C2380228B
:1013D0002421002000F0BAFE00F0E4FA5848801DF5
:1013E00002F0D2FB10B18FA005F06CFE4C4802F069
:1013F000B5F94B48524983780088C988421A8CA1B4
:1014000003A805F06FFE8DE870000C2380223021C8
:10141000002000F09BFE00F0C5FA4FF47A7002F055
:10142000A3FC00F0FCFA14B0BDE8F0810EB5002476
:1014300002F06CFC4FF4A06002F056FD4FF4165021
:1014400002F0BAFC4FF4E13002F0B6FC05F0B1F95D
:1014500001F0F0F800F0FCFB01F018FB01F0C0FB1C
:101460004FF4614001F0BEFE01F090FF00F0D7FAAA
:10147000FFF73BFF01F0F6FCA34698B100F0CFFA6E
:101480000C2170A2CDE900211423CDF808B08022F0
:101490000D210C2000F05AFE00F084FA40F6B8301E
:1014A00002F062FCFFF7F9FE4FF010084FF496755A
:1014B000DFF88C904FF4FA7A02E0504602F054FCC8
:1014C00004F06EFA0028F8D1AA464F4600F0A7FAB9
:1014D00000223021382000F098FE5E4D02262E704A
:1014E000B888401C80B2B880504505D304F0B9FAE2
:1014F000A7F804B005F0F6F8032005F041F9B8604C
:1015000008B104F0DFFA0A2002F02EFCA4E000008B
:10151000D5FDD4DABCECB2E2D6B8CEC600000000ED
:10152000F000002049443A25642020202020C6A550
:10153000C5E4B7D6000000003A256400FC04002092
:101540000000002000F00008E2F60E0031323334D3
:10155000353600003938303730360000B3F5CABCB4
:10156000BBAFC5E4D6C3B3C9B9A60D0A00000000DD
:10157000BBB6D3ADCAB9D3C3D6C7C4DCC3C5CBF8D9
:101580000D0A0000D6C7C4DCC3C5CBF8CFB5CDB3B8
:101590000000000066696E6765727072696E742083
:1015A00073797374656D2100636F6E6E656374206B
:1015B000746F20617336303800000000636F6E6E08
:1015C000656374206661696C656421200000000019
:1015D000636F6E6E65637420746F2061733630388C
:1015E00020200000636F6E6E65637420746F20614D
:1015F000733630382E2E0D0A000000006C000020DB
:10160000636F6E6E656374206661696C656421004A
:10161000626175643A25642020616464723A2578B9
:10162000000000004552523A3031300D0A000000EF
:1016300063617061636974793A256420204C763A5D
:1016400020256400525443204352592045525221D0
:10165000000000008C000020FFF7E3FD387801282F
:101660000BD187F800B03F23102218210020CDF8BD
:1016700000B000F013FA00F095F92878012801D0A5
:1016800018B10AE0FEF75EFD2BE0FEF77EFD0022BA
:101690003021382000F0B9FD2E70784ED6F81001B8
:1016A00048B90CE0FFF7D6FCF860D0B10022302139
:1016B000382000F0AAFDD6F810010028F2D101F080
:1016C0001FF83861401C08D0FFF7AAFBF86040B152
:1016D00000223021382000F098FD012002F044FB68
:1016E000FCE65E4600F09BF90021302314220846F8
:1016F000009600F0D3F9032C61A1029609D2CDE93E
:101700000018210110238022052000F01FFD002574
:101710000AE0CDE900182001303881B21023802280
:10172000052000F013FD0325DFF8589110238022D7
:1017300059F82510CDE9001802960021192000F073
:1017400005FD09EB850510236968CDE900188022A5
:1017500002961946192000F0F9FCA968CDE9001895
:101760001023802202962021192000F0EFFC0C208B
:1017700045A1CDE9001003468022029634210020C5
:1017800000F0E4FC00F00EF9DFF810910025B888B5
:10179000401C80B2B880504504D304F062F9BE808A
:1017A00004F0A0FF032004F0EBFFB86008B104F0E0
:1017B00089F999F8000030B142F210706D1C854231
:1017C0000CDD01200BE0FEF7E0FC00223021382088
:1017D00000F01BFD31490220087010E0002039693B
:1017E00004290FD0002108430ED000F018F9FEF7AD
:1017F000CCFC42F21070854201DD01F01CFA00F0D1
:101800000EF963E60121EEE700F07AFF386128B1B6
:101810000D2807D00F280AD010280ED0012002F082
:10182000A3FAB4E7002C3FF45FAF641E03E0052C7D
:10183000BFF45AAF641CE4B256E7062CBFF452AFB3
:10184000DFE804F004070A0D03104BE7FFF794F8F4
:1018500048E7FFF727F845E7FEF71FFE42E7FEF7E8
:10186000DBFC3FE7FEF7B9FC3CE70C4801780C488D
:10187000012900D00021C0F8B411704700002142B6
:101880002D3E000030000020C9CF20202020CFC2F4
:101890002020202020C8B7B6A80000008C0000201F
:1018A000000022427047FEE7FEE7FEE7FEE77047D2
:1018B00070477047704700002348016841F00101FC
:1018C00001604168214A114041600168204A11408D
:1018D0000160016821F480210160416821F4FE016A
:1018E00041604FF41F0181601A49C00308607047CE
:1018F000154A10B55068184B10F00C01174803D06A
:10190000042901D0082901D0036012E0516853680E
:1019100001F470114FF0020413F4803F04EB914185
:1019200002D053689B0301D50D4B00E00A4B59438D
:1019300001605168094AC1F30311121D515C02682C
:10194000CA40026010BD0000001002400000FFF815
:10195000FFFFF6FE08ED00E000127A004C000020C8
:1019600000093D0070B5FE4DC5F8B0110023C5F863
:10197000AC31FC4C19460122C4F8A831060602D548
:10198000C5F8842101E0C5F88431C4F8A8214006D7
:10199000491C000EC9B20829EED3C5F8AC21C5F820
:1019A000B02170BD70B5F04E002505F1B000C0B299
:1019B0000021FFF7D7FF00210846FFF7D3FF0021E2
:1019C0001020FFF7CFFF002406EBC4000121405D8B
:1019D000FFF7C8FF641CE4B2802CF5D36D1CEDB298
:1019E000082DE2D370BD00B500218D20FFF7BAFFAE
:1019F00000211420FFF7B6FF0021AF205DF804EBB3
:101A0000B0E700B500218D20FFF7ACFF00211020CA
:101A1000FFF7A8FF0021AE205DF804EBA2E710B4A9
:101A20000021D14B0A46002003EBC004401CC0B289
:101A300062548028F8D3491CC9B20829F3D310BCDA
:101A4000B0E710B40021C84B0A46002003EBC004E5
:101A5000401CC0B262548028F8D3491CC9B208297E
:101A6000F3D310BC9EE710B57F2816D83F2914D8B1
:101A70000723A3EBD10301F00701C1F10704012102
:101A8000A140B94CDBB204EBC000002AC25CC9B271
:101A900001D00A4300E08A43C25410BD2DE9F04151
:101AA0001E4694460F460546DDF818800CE03C467D
:101AB00006E0424621462846FFF7D5FF641CE4B203
:101AC000B442F6D96D1CEDB26545F0D9BDE8F081A0
:101AD0002DE9F04F82461E460F468946580700D032
:101AE000012000EBD60071084843203A00F0FF0BBC
:101AF00002F0FF08002539E00C2E0FD0102E11D077
:101B0000182E35D1994908EBC80001EB80004FF041
:101B1000000C445D200609D5099A0AE008EB48004C
:101B20009349F2E7934901EB0810F0E7099890B167
:101B3000002239465046FFF796FF60067F1C040ED0
:101B4000FFB2A7EB0900B04207D10AF101004F46EE
:101B500000F0FF0A08E00122EBE70CF1010C0CF0A9
:101B6000FF0CBCF1080FD5D36D1CEDB25D45C3D39E
:101B7000BDE8F08F0346012000E05843491EC9B27A
:101B8000FBD270472DE9FF4F81B00027DDF838B058
:101B90001D46924680463C464FF001094FEA5B06DF
:101BA00027E0281B401EC1B20A20FFF7E3FFBAFB63
:101BB000F0F00A21B0FBF1F201FB120027B9691E17
:101BC0008C4201DA48B101273030C2B206FB0480F2
:101BD000C0B25B46CDF8009006E006FB0480C0B2C0
:101BE0005B462022CDF800900299FFF771FF641C3C
:101BF000E4B2AC42D5D305B0BAE72DE9F8470446C4
:101C00001F46802016460D46A0EB5709C3F1400839
:101C10004FF0010A16E0A14502D20024E819C5B22E
:101C2000A84503DA00242546FFF7F9FECDF800A009
:101C300032783B4629462046FFF74AFF04EB57001F
:101C4000C4B2761C307820385E28E4D9BDE8F88725
:101C500038B501212C2002F0DEFB0121084602F0FC
:101C6000DAFB10208DF8030003208DF80200424CAF
:101C7000ADF800006946204602F0E5F92115ADF8FF
:101C8000001069463D4802F0DEF94FF4C051ADF84E
:101C900000106946204602F0D6F9314D0124C5F8FE
:101CA00084413048C0F8A841C5F8AC41C5F8B041FE
:101CB0000020C5F88001642005F5C07502F054F8D5
:101CC0002C600021AE20FFF74DFE0021D520FFF74C
:101CD00049FE00215020FFF745FE0021A820FFF714
:101CE00041FE00213F20FFF73DFE0021D320FFF7FA
:101CF00039FE00210846FFF735FE00214020FFF79E
:101D000031FE00218D20FFF72DFE00211420FFF76A
:101D100029FE00212020FFF725FE00210220FFF7E9
:101D200021FE0021A120FFF71DFE0021C020FFF7AA
:101D300019FE0021DA20FFF715FE00211220FFF71F
:101D400011FE00218120FFF70DFE0021EF20FFF79B
:101D500009FE0021D920FFF705FE0021F1200FE048
:101D60000000214200802142FC000020248A00085B
:101D7000C07F00083484000800080140000C0140C6
:101D8000FFF7F0FD0021DB20FFF7ECFD0021302004
:101D9000FFF7E8FD0021A420FFF7E4FD0021A620C5
:101DA000FFF7E0FD0021AF20FFF7DCFDFFF737FE76
:101DB00038BD2DE9F84F1E4617468C460546DDF81E
:101DC00028A0B2E080282ED2202802D9203880B264
:101DD00000E00020FE494FF0000801EB00194FF031
:101DE000800B002419F808102BFA04F0014201D0EE
:101DF000FAB202E0B74207D0F2B20CEB0800C1B26F
:101E00002819C0B2FFF72FFE641CE4B2082CE9D3F6
:101E100008F1010000F0FF08B8F1100FE1D30AF15A
:101E2000010A083580E00020834600EB800101EBC9
:101E30004B10E8499AF8002011F8103093426AD10B
:101E400001EB4000009041789AF80100814262D194
:101E50000024009904EB44004FF0000801EB000956
:101E6000802099F8021020FA08F0014201D0FAB25D
:101E700002E0B74208D0F2B20CEB0400C1B205EBAD
:101E80000800C0B2FFF7EFFD08F1010000F0FF0805
:101E9000B8F1080FE4D34FF0000899F80310802040
:101EA00020FA08F0014201D0FAB202E0B74209D0AC
:101EB000F2B20CEB0400C1B205EB08000830C0B26E
:101EC000FFF7D1FD08F1010000F0FF08B8F1080F9D
:101ED000E3D34FF0000899F80410802020FA08F0AE
:101EE000014201D0FAB202E0B74209D0F2B20CEBE3
:101EF0000400C1B205EB08001030C0B2FFF7B3FD1B
:101F000008F1010000F0FF08B8F1080FE3D3641CEA
:101F1000E4B2182C9DD30BF1010080B283460A284D
:101F200083D30AF1020A1835ADB29AF800000028EE
:101F30007FF448AFBDE8F88F2DE9FC4F1F46DDF870
:101F40002C9090460E460546019074E0802A11D2EE
:101F50000D2A0BD001200090F1B2E8B21023FFF758
:101F6000B7FD0835ADB209F1010964E01036B6B22B
:101F7000019DF6E74FF0000A97490AEB0A1099F81D
:101F8000002011F8103093424AD101EB400000903C
:101F9000417899F80100814242D1002400984FF025
:101FA000000C00EB440B80209BF8021020FA0CF090
:101FB000014202D008F0FF0202E0B84507D0FAB2B1
:101FC0003019C1B205EB0C00C0B2FFF74CFD0CF1AB
:101FD000010C0CF0FF0CBCF1080FE4D34FF0000C27
:101FE0009BF80310802020FA0CF0014202D008F088
:101FF000FF0202E0B84508D0FAB23019C1B205EBD1
:102000000C000830C0B2FFF72EFD0CF1010C0CF0F3
:10201000FF0CBCF1080FE3D3641CE4B2102CBDD359
:102020000AF101001FFA80FABAF13C0FA4D310356F
:1020300009F10209ADB299F80020002A86D1BDE865
:10204000FC8F2DE9FC4F1F46DDF82C9090460E4684
:102050000546019075E0802A11D20D2A0BD001208F
:102060000090F1B2E8B20C23FFF732FD0835ADB2B3
:1020700009F1010965E01036B6B2019DF6E70020CE
:10208000824600EB800101EBCA00544999F8002018
:1020900011F8103093424AD101EB40000090417892
:1020A00099F80100814242D1002400984FF0000CC1
:1020B00000EB440B80209BF8021020FA0CF0014248
:1020C00002D008F0FF0202E0B84507D0FAB230199A
:1020D000C1B205EB0C00C0B2FFF7C5FC0CF1010C5E
:1020E0000CF0FF0CBCF1080FE4D34FF0000C9BF890
:1020F0000310802020FA0CF0014202D008F0FF0209
:1021000002E0B84508D0FAB23019C1B205EB0C00B4
:102110000830C0B2FFF7A7FC0CF1010C0CF0FF0C6B
:10212000BCF1080FE3D3641CE4B20C2CBDD30AF15C
:10213000010080B282469628A3D30C3509F102092A
:10214000ADB299F80020002A85D178E72DE9FF4F3C
:1021500081B00546DDE90E6780469B460C468A46FF
:102160000020814630E0B9F1000F0DD00C2F3CD09B
:10217000102F42D0182F06D10023012221462846D5
:102180000096FFF716FE36E5802A01D90120E8E720
:10219000039908EB0100A0EB5700A84202DAE0190E
:1021A00084B245460AEB0B00C01BA042EBDB0D2AB4
:1021B00016D001200090E1B2E8B23B46FFF788FC60
:1021C00005EB570085B2761C3278002ACBD112E598
:1021D00034840008D0AB0008E8A400088097000809
:1021E000E01984B24546761CEAE700230122214625
:1021F00028460096FFF725FFFDE400230122214633
:1022000028460096FFF798FEF5E42DE9F0470746CB
:10221000F9480C4688464FF0200A00EB42194FF06F
:10222000000C002519F80C60E1B23006F8B201D5B7
:10223000012200E00022FFF716FC7006641C060E67
:10224000A4B2A4EB080010280BD06D1CEDB2082D31
:10225000EAD30CF1010C0CF0FF0CD445E1D3BDE83E
:10226000F0877F1C4446BFB2F3E72DE9F047002416
:10227000E24925464FF4806901EB802AA4464FF6D7
:10228000FF781AF80C7000263806E9B2E0B201D5E2
:10229000012200E00022FFF7E6FB641CA4B208EA7A
:1022A0004707802C0AD0761CB6B2082EECD30CF16E
:1022B000010C1FFA8CFCCC45E3D3D0E700246D1C45
:1022C000ADB2F4E7C0F34511C20AC00200EB411001
:1022D000104480B270472DE9F04F844616460F46F1
:1022E0000025704203211C4601EB400858E007EB33
:1022F00006090CEB050BE2B209F0FF010BF0FF0041
:10230000FFF7B1FBACEB050AE2B209F0FF010AF0FE
:10231000FF00FFF7A8FBA7EB0609E2B209F0FF01F7
:102320000BF0FF00FFF79FFBE2B209F0FF010AF09C
:10233000FF00FFF798FB07EB05090CEB060BE2B279
:1023400009F0FF010BF0FF00FFF78DFBACEB060A75
:10235000E2B209F0FF010AF0FF00FFF784FBA7EBF0
:102360000509E2B209F0FF010BF0FF00FFF77BFB6C
:10237000E2B209F0FF010AF0FF00FFF774FBB8F1C9
:10238000000F04DA08EB850000F1060806E0A91B3F
:1023900008EB8100761E00F10A08B6B26D1CADB2E2
:1023A000B542A4D3B54243D107EB06090CEB0508AF
:1023B000E2B209F0FF0108F0FF00FFF754FBE2B2C0
:1023C00009F0FF0108F0FF00FFF74DFBA7EB06093E
:1023D000E2B209F0FF0108F0FF00FFF744FBACEBAD
:1023E0000500E2B209F0FF01C0B2FFF73CFB07EBCA
:1023F00005080CEB0609E2B208F0FF0109F0FF0046
:10240000FFF731FBACEB0606E2B208F0FF01F0B2D9
:10241000FFF729FB7D1BE2B2E9B209F0FF00FFF7ED
:1024200022FBE2B2E9B2F0B2BDE8F04FFFF71BBB0E
:10243000BDE8F08F2DE9F04F05460C46B2EB050CD8
:10244000A3EB04074FF0FF3002D44FF0010902E084
:102450008146CCF1000C002F02DB4FF0010801E0B7
:1024600080467F424FEA4C0B4FEA470ABC4518DDD5
:10247000AAEB0C06002711E00998E1B2C2B2E8B25B
:10248000FFF7F1FA002E04DB04EB0800A6EB0B06C5
:1024900084B205EB0900564485B27F1C6745EBDD2D
:1024A000C6E7ABEB07064FF0000C12E00998E1B26B
:1024B000C2B2E8B2FFF7D7FA002E04DB05EB090041
:1024C000A6EB0A0685B204EB08005E4484B20CF168
:1024D000010CBC45EADDABE72DE9F84F1C464EF692
:1024E0007D7B86180F468046B2B20B46CDF800B011
:1024F000FFF7A0FF3C44601C751E42F6651A83B2CC
:1025000007F10109AAB21FFA89F1A8B2CDF800A01B
:10251000FFF790FFA3B2B2B2A1B24046CDF800A03F
:10252000FFF788FF4246A3B239461046CDF800B007
:10253000FFF780FF0A980090641E08F10100A3B223
:10254000AAB21FFA89F180B2FFF774FFF2E42DE915
:10255000F84F8246CC184F1C0AEB02060A988946AF
:1025600042F6651B04F10108751E38B3012847D0F7
:10257000022822D14FF6FF7B4B46B2B21946504695
:10258000CDF800B0FFF756FF1FFA88F3AAB2B9B230
:10259000A8B2CDF800B0FFF74DFFCDF800B0A3B260
:1025A000B2B2A1B25046FFF745FFCDF800B0524697
:1025B000A3B249461046FFF73DFFBBE44EF67D70DF
:1025C0004B460090B2B219465046FFF733FF1FFA50
:1025D00088F3AAB2B9B2A8B2CDF800B0FFF72AFFCB
:1025E000A3B2B2B2A1B25046CDF800B0FFF722FFBD
:1025F0004EF67D700090DAE7807F00086AAE000832
:102600004B46B2B219465046CDF800B0FFF712FF64
:102610004EF67D7000901FFA88F3AAB2B9B2A8B244
:10262000FFF708FF4EF67D700090B8E770477047DF
:1026300070470000F8B50121092001F0ECFE0121EE
:10264000F74801F08BFD1025ADF80050F54E8DF8E0
:10265000035003248DF802406946304601F0F3FC34
:102660002020ADF800008DF803508DF80240694637
:10267000304601F0E8FC4020ADF800008DF8035032
:102680008DF802406946304601F0DDFC8DF80350BC
:102690008DF802408020ADF800006946304601F018
:1026A000D2FC0120ADF8000028258DF803508DF8EC
:1026B00002406946304601F0C6FC0220ADF8000039
:1026C0008DF803508DF802406946304601F0BBFC9E
:1026D0004FF48040ADF800008DF803508DF80240B3
:1026E0006946304601F0AFFC8DF803508DF802408A
:1026F0000820ADF800006946304601F0A4FCF8BDA2
:102700002DE9F041C74D1021284601F006FD20219A
:10271000284601F002FD4021284601F0FEFC802100
:10272000284601F0FAFC0121284601F0E2FC0446AB
:102730000221284601F0DDFC04434FF4804739466E
:10274000284601F0D6FC04430821284601F0D1FCBC
:1027500004434FF0FF3641D0052001F005FB012175
:10276000284601F0C6FC04460221284601F0C1FCBF
:1027700004433946284601F0BCFC0443082128469E
:1027800001F0B7FC044329D01021284601F0C7FC12
:102790002021284601F0C3FC4021284601F0BFFC5F
:1027A0008021284601F0B9FC0121284601F0A1FC56
:1027B0009D4E02213070284601F09BFC7070394616
:1027C000284601F096FCB0700821284601F091FCE3
:1027D000F0703178012904D051B111E03046BDE8E4
:1027E000F081727862B9B27852B948B9042206E031
:1027F0007278012A04D1B27812B908B9082232716C
:1028000072781143B27851EA020303D1012801D151
:102810001023337121B9012A02D108B90C2030717B
:102820000121284601F065FC04460221284601F0FA
:1028300060FC04433946284601F05BFC0443082150
:10284000284601F056FC0443EAD11021284601F045
:1028500064FC2021284601F062FC4021284601F05A
:102860005EFC8021284601F05AFC0121284601F037
:1028700040FC30700221284601F03BFC7070394664
:10288000284601F036FCB0700821284601F031FCE2
:10289000F0703178012901D039B10EE0727862B957
:1028A000B27852B948B9012206E07278012A04D1FF
:1028B000B27812B908B9052232717278114305D184
:1028C000B278012A02D108B909223271B2781143D3
:1028D00003D1012801D10D2030710121284601F0DA
:1028E00008FC04460221284601F003FC0443394653
:1028F000284601F0FEFB04430821284601F0F9FBBD
:102900000443EAD11021284601F009FC2021284681
:1029100001F003FC4021284601F001FC80212846FB
:1029200001F0FDFB0121284601F0E3FB307002219C
:10293000284601F0DEFB70703946284601F0D9FBCD
:10294000B0700821284601F0D4FBF07031780129DD
:1029500001D039B10EE0727862B9B27852B948B993
:10296000022206E07278012A04D1B27812B908B9BD
:10297000062232717278114305D1B278012A02D150
:1029800008B90A223271B278114303D1012801D16A
:102990000E2030710121284601F0ABFB04460221D4
:1029A000284601F0A6FB04433946284601F0A1FB66
:1029B00004430821284601F09CFB0443EAD110217E
:1029C000284601F0ACFB2021284601F0A8FB40215D
:1029D000284601F0A2FB8021284601F0A0FB01213E
:1029E000284601F086FB30700221284601F081FB69
:1029F00070703946284601F07CFBB07008212846EB
:102A000001F077FBF0703178012901D071B115E048
:102A100072789AB9B2788AB980B903220DE00000C1
:102A200000023000000C0140600000207278012A92
:102A300004D1B27812B908B9072232717278114301
:102A400005D1B278012A02D108B90B223271B278CD
:102A5000114303D1012801D10F20307101212846F3
:102A600001F047FB04460221284601F042FB0443E3
:102A70003946284601F03DFB04430821284601F071
:102A800038FB0443EAD13079A9E60000F8B501210A
:102A9000082001F0C0FC10208DF8030003208DF801
:102AA00002004B4D4FF40064ADF8004069462846E3
:102AB00001F0C9FA474EE022ADF8002069463046E1
:102AC00001F0C1FA2146284601F029FBE0213046F9
:102AD00001F025FBF8BD2DE9F04100263E4F3F4DAA
:102AE00034464FF00108C7F8AC81C5F89441C5F8E9
:102AF0009841C5F89C41032005F5CA7501F034F9E9
:102B0000C7F8AC41C5F800806C60AC60032001F0F0
:102B10002BF9C7F8AC412C60C5F80480AC600320E9
:102B200001F022F9C7F8AC412C606C60C5F8088050
:102B30000320A5F5CA7501F017F9761CFF2ED2DD2A
:102B4000C7F8AC41C5F89441C5F89841C5F89C4117
:102B5000BDE8F0812DE9F04100261F4F1F4D34469E
:102B60004FF00108C7F8AC41C5F89441C5F8984149
:102B7000C5F89C81052005F5CA7501F0F5F8C7F880
:102B8000AC412C60C5F80480AC60052001F0ECF885
:102B9000C7F8AC41C5F800806C60AC60052001F05E
:102BA000E3F8C7F8AC812C606C60AC600520A5F53B
:102BB000CA7501F0D9F8761CFF2ED3DDC7F8AC41F9
:102BC000C5F89441C5F89841C5F89C41C0E700009C
:102BD000000C014000080140008021420000214219
:102BE00038B50121082001F016FC4FF40054ADF86F
:102BF000004010208DF8030003201A4D8DF80200CC
:102C00006946284601F01FFA2146284601F087FA56
:102C100038BD70B5134D4FF400542146284601F0DD
:102C20007CFA4FF4167001F09FF821462846BDE863
:102C3000704001F074BA70B50A4E00244FF400558C
:102C40002946304601F069FAC82001F08DF829467E
:102C5000304601F064FAC82001F086F8641C052CA7
:102C6000EEDB70BD000C014030B56423B0FBF3F423
:102C7000B0FBF3F5E4B203FB1500132C01D964306B
:102C8000C0B200EB90030724B3FBF4F504FB15334B
:102C9000EE4D1A440D44800715F8015C2A4492B2A7
:102CA00003D1032901D2521E92B2B2FBF4F004FB0D
:102CB000102030BD81070CD16421B0FBF1F201FB83
:102CC000120141B94FF4C871B0FBF1F201FB1200DF
:102CD00008B100207047012070472DE9F04101F054
:102CE000D4FFDFF86CC30546B0FBFCF3D948DA4EDD
:102CF0000188994230D0038040F2B2744FF4B77724
:102D00004FF4B6780FE02046FFF7D4FF38B1BB424E
:102D100002D3A3F5B77304E0641CA4B205E0A3F2E8
:102D20006D13641CA4B24345EDD8B480C74F002492
:102D30000C370BE0B088FFF7BDFF08B1012C2ED097
:102D4000385D984204D81B1A641CA4B21C2BF1D223
:102D5000641CB4715B1CF371B5FBFCF00CFB1050F0
:102D60004FF46161B0FBF1F23270B0FBF1F201FBA4
:102D700012033C22B3FBF2F37370B0FBF1F301FBDF
:102D80001300B0FBF2F102FB1100B070F279B179DF
:102D9000B088FFF769FF30720020BDE8F0811D2B7D
:102DA000D6D31D3BD0E72DE9F05F99460546DDE916
:102DB0000AAB0023A0F2B27090468C46822802D360
:102DC0000120BDE8F09F40F2B274A44EA44F08E089
:102DD0002046FFF76FFF08B1334400E03B44641C1A
:102DE000A4B2AC42F4D3ACF1010C984F0CF0FF0646
:102DF00000240C37DFF858C20EE0385D40F2A32102
:102E0000484303EBC0132846FFF754FF10B1012CD1
:102E100000D16344641CA4B2B442EED340F2A321B7
:102E200008FB01F08A4903EBC01049420144C9EB99
:102E30004912C2EB092001EB0011CAEB0A1001EBA9
:102E4000800000EB0B0401214FF0C05001F0ECFAC0
:102E5000012002F05BFD204601F020FF01F050FF51
:102E60000020AEE77CB5002401214FF0C05001F0F6
:102E7000DBFA012002F04AFD042002F018FD45F2C1
:102E80005005A84240D002F0E9FC012001F05EFAB2
:102E900004E0641CE4B20A2000F066FF412001F067
:102EA000DEF918B1FA2C04D301207CBDFA2CF0D342
:102EB000FAE74FF4807001F05AFA012001F05CFA51
:102EC00001F01EFF01F022FF0121084601F0C6FEBD
:102ED00001F016FF01F0CBFE47F6FF7001F0EBFEAC
:102EE00001F00EFF37212A20CDE90001112306222F
:102EF0000C2140F2E570FFF756FF01F0BFFE2946B6
:102F0000042002F0CDFC07E001F000FF012108469B
:102F100001F0A4FE01F0F4FE03208DF80000002073
:102F20008DF801008DF8020001208DF8030068463D
:102F300000F0DFFFFFF7D1FE00207CBD0EB50120C1
:102F400001F0FDFE40B1474991F84F0010B1401E1D
:102F500081F84F00FFF7C1FE022001F0F0FE80B1C2
:102F6000022001F0FAFEFFF7B8FE3B488378427872
:102F700001788DE80E00C379827981883AA004F047
:102F8000A1F8052001F0E9FEBDE80E4001F0B8BE51
:102F90002DE9F05F99460546DDE90AAB0023A0F272
:102FA000B27090468C46822801D3012009E740F296
:102FB000B2742A4E2A4F08E02046FFF77BFE08B184
:102FC000334400E03B44641CA4B2AC42F4D3ACF103
:102FD000010C1E4F0CF0FF0600240C37DFF870C008
:102FE0000EE0385D40F2A321484303EBC0132846AE
:102FF000FFF760FE10B1012C00D16344641CA4B241
:10300000B442EED340F2A32108FB01F0104903EBD8
:10301000C01049420144C9EB4912C2EB092001EB3F
:103020000011CAEB0A1001EB800000EB0B04012138
:103030004FF0C05001F0F8F9012002F067FC204683
:1030400001F047FE01F05CFE0020BAE66AB200081B
:103050008051010066000020FC0400200085E20190
:103060008033E101A0000020416C61726D20546941
:103070006D653A25642D25642D25642025643A2547
:10308000643A25640A000000008870472DE9F04189
:1030900016460F460546002407E037F81410284668
:1030A00001F0B1FC641CA4B2AD1CB442F5D3BDE880
:1030B000F08110B5002305E030F8024B21F81340F1
:1030C0005B1C9BB29342F7D310BD2DE9F05FA0F1DA
:1030D0000064154688468246B4F5002F50D201F0B0
:1030E00096FBE70AC4F34906C6F58064A54200D8FA
:1030F0002C46DFF89CB04FF0006000EBC720814603
:103100004FF480622249FFF7D4FF00204FF6FF7290
:1031100006E033183BF81310914203D1401C80B2F3
:10312000A042F6D3A04223D2484601F0AAFB0020D9
:103130005A4606E038F810108319401C22F8131084
:1031400080B2A042F6D348464FF480621049FFF7A0
:103150009DFFA54210D0281B08EB4408A24400267E
:1031600085B24FF480647F1CA542C4D82C46C2E7C8
:10317000224641465046EAE7BDE8F05F01F053BB06
:10318000BDE8F09F13B5012201A9FFF79EFF1CBD0A
:103190000605002070B5524C40F22551204601F042
:1031A000EDFA00281AD0204601F081FA4D4DC4B244
:1031B0002888010412D4B0F5C87F10D24A4E0021ED
:1031C000304602F010FB288818B90121304602F081
:1031D0000DF9464928880C54401C288070BD40F4E5
:1031E0000040FAE7F0B5074687B00121042001F05E
:1031F00012F90121480401F017F9394D284601F070
:1032000059F90424ADF8104003208DF8120018205D
:10321000374E8DF8130004A9304600F014FF082043
:10322000ADF810008DF8134004A9304600F00BFFF4
:103230000024ADF808400C20ADF80440ADF80A00B9
:103240000097ADF80640ADF80C406946284601F0FD
:1032500061F90121284601F0D0F9012240F22551FF
:10326000284601F0D4F926208DF8140001208DF8AD
:1032700015008DF816408DF8170005A800F039FEEE
:1032800042F2CF0140F2E73000F036F81548002155
:103290000480154802F0AAF807B0F0BD0FB4154835
:1032A0002DE9F04107AA069903F046FF114803F003
:1032B0009FFB85B200240A4E0E4F0BE040213046A2
:1032C00001F052FA0028F9D0395D304601F0EBF9EF
:1032D000641CA4B2AC42F1D3BDE8F0015DF814FB6C
:1032E000004400406800002000040040980E0020C8
:1032F00000080140080D00207FB50D46044601215D
:10330000022001F091F8ADF80440ADF8005000241F
:103310001C4DADF80640ADF802406946284601F064
:10332000BDFD01221146284602F075F81D218DF8D9
:103330000C108DF80D4003208DF80E0001208DF843
:103340000F0003A800F0D5FD0121284602F04EF839
:103350007FBD10B50B4C0121204602F070FA002809
:103360000ED00948018841F4004101800121204626
:1033700002F071FA2046BDE81040002102F036B894
:1033800010BD0000000400406800002008B50121C5
:10339000042001F040F81020ADF8000028208DF83E
:1033A000030003208DF802006946FE4800F04BFE42
:1033B00008BD10B5FC4C2068000E00F047FC2068EA
:1033C000C0F3074000F042FC2088C0F3072000F063
:1033D0003DFC2078BDE8104000F038BC7CB50446C8
:1033E000EF208DF8000001208DF80100EE48EF4E2F
:1033F0000068010E8DF80210010C8DF80310010A0F
:103400008DF804108DF8050007208DF806000025C2
:103410008DF8075035800CE0012000F0A5FC3088C5
:10342000000406D535806946E14803F0C5FA002856
:1034300004D1641E2404240CEED100207CBD10B500
:1034400000F00CFCFFF7B5FF012000F0FFFB0320AC
:1034500000F00CFC012000F0F9FB052000F010FC4E
:103460004FF4FA60FFF7BAFF08B1407A10BDFF20B1
:1034700010BD10B5044600F0F1FBFFF79AFF0120E4
:1034800000F0E4FB042000F0F1FB022000F0DEFB82
:10349000204600F0DBFBE01D00F0F2FB4FF4FA6089
:1034A000FFF79CFF08B1407A10BDFF2010BD10B59A
:1034B00000F0D4FBFFF77DFF012000F0C7FB0320E5
:1034C00000F0D4FB032000F0C1FB072000F0D8FB84
:1034D0004FF4FA60FFF782FF08B1407A10BDFF2079
:1034E00010BD2DE9F0411E4614460D46074600F07A
:1034F000B5FBFFF75EFF012000F0A8FB082000F0FD
:10350000B5FB042000F0A2FB384600F09FFB280A20
:1035100000F09CFBE8B200F099FB200A00F096FB5B
:10352000E0B200F093FB07EB1520E9B2084400EB92
:103530001420E1B208440D3000F0A2FB4FF4FA6011
:10354000FFF74CFF58B1C27A837A417A02EB03222B
:103550003280427B007B02EB0020708000E0FF2184
:103560000846BDE8F08110B500F078FBFFF721FFB9
:10357000012000F06BFB032000F078FB052000F039
:1035800065FB092000F07CFB4FF4FA60FFF726FF93
:1035900008B1407A10BDFF2010BD70B50C4605463D
:1035A00000F05CFBFFF705FF012000F04FFB062059
:1035B00000F05CFB062000F049FB284600F046FBCB
:1035C000200A00F043FBE0B200F040FB05EB1420C2
:1035D000E1B208440D3000F053FB4FF4FA60FFF7FE
:1035E000FDFE08B1407A70BDFF2070BD70B50C467D
:1035F000054600F033FBFFF7DCFE012000F026FB60
:10360000072000F033FB0C2000F020FB280A00F01C
:103610001DFBE8B200F01AFB200A00F017FBE0B235
:1036200000F014FBE8B200EB152000EB1420E1B22F
:103630000844143000F024FB4FF4FA60FFF7CEFE8C
:1036400008B1407A70BDFF2070BD10B500F006FBD8
:10365000FFF7AFFE012000F0F9FA032000F006FBAF
:103660000D2000F0F3FA112000F00AFB4FF4FA608D
:10367000FFF7B4FE08B1407A10BDFF2010BD21282D
:103680003AD2DFE800F011131517191B1D1F212175
:1036900023253939393925273939392939392B2D14
:1036A0002F3133393935370042A0704742A0704777
:1036B00045A0704749A070474DA0704754A070477F
:1036C0005BA0704761A070476EA0704770A0704704
:1036D00073A0704776A0704779A0704781A07047AB
:1036E00084A0704786A0704789A070478DA070475E
:1036F00091A0704793A0704795A0704770B50C4695
:10370000054600F0ABFAFFF754FE012000F09EFAE8
:10371000052000F0ABFA0E2000F098FA284600F0E1
:1037200095FA204600F092FA2819143000F0A8FA11
:103730004FF4FA60FFF752FE10B1447A54B100E042
:10374000FF242046FFF79BFF014686A003F0BAFC4A
:10375000204670BD85A003F0B5FCF9E770B50446BE
:1037600000F07CFAFFF725FE012000F06FFA03203D
:1037700000F07CFA0F2000F069FA132000F080FAC4
:103780004FF47A70FFF72AFE50B1C17B827B457AF5
:1037900001EB022189B22180427CA270427DEFE0E0
:1037A000FEE00000000801406C00002068000020DE
:1037B000980E00204F4B0000CAFDBEDDB0FCBDD30B
:1037C000CAD5B4EDCEF30000B4ABB8D0C6F7C9CFBC
:1037D000C3BBD3D0CAD6D6B800000000C2BCC8EB69
:1037E000D6B8CEC6CDBCCFF1CAA7B0DC0000000071
:1037F000D6B8CEC6CDBCCFF1CCABB8C9A1A2CCABAC
:10380000B5ADB6F8C9FAB2BBB3C9CCD8D5F700008C
:10381000D6B8CEC6CDBCCFF1CCABCAAAA1A2CCAB98
:10382000BAFDB6F8C9FAB2BBB3C9CCD8D5F7000017
:10383000D6B8CEC6CDBCCFF1CCABC2D2B6F8C9FAA1
:10384000B2BBB3C9CCD8D5F700000000D6B8CEC6FD
:10385000CDBCCFF1D5FDB3A3A3ACB5ABCCD8D5F7D8
:10386000B5E3CCABC9D9A3A8BBF2C3E6BBFDCCABD7
:10387000D0A1A3A9B6F8C9FAB2BBB3C9CCD8D5F7C1
:1038800000000000D6B8CEC6B2BBC6A5C5E4210074
:10389000CCD8D5F7BACFB2A2CAA7B0DC00000000DE
:1038A000C9BEB3FDC4A3B0E5CAA7B0DC00000000E8
:1038B000C7E5BFD5D6B8CEC6BFE2CAA7B0DC000008
:1038C000BBBAB3E5C7F8C4DAC3BBD3D0D3D0D0A753
:1038D000D4ADCABCCDBCB6F8C9FAB2BBB3C9CDBC75
:1038E000CFF10000B6C1D0B420464C41534820B3BC
:1038F000F6B4ED00CEB4B6A8D2E5B4EDCEF3000038
:10390000CEDED0A7BCC4B4E6C6F7BAC5000000003E
:10391000BCC4B4E6C6F7C9E8B6A8C4DAC8DDB4EDDD
:10392000CEF30000BCC7CAC2B1BED2B3C2EBD6B898
:10393000B6A8B4EDCEF30000D6B8CEC6BFE2C2FA48
:1039400000000000B5D8D6B7B4EDCEF300000000FB
:10395000C4A3BFE9B7B5BBD8C8B7C8CFC2EBD3D0F3
:10396000CEF300000D0A2573000000000D0AC9E81F
:10397000D6C3B2CECAFDB3C9B9A6A3A10000000048
:10398000837C067D02EB0362C37C1B0403EB0623EE
:103990001A446260C27D2272407E60725DB100E0B6
:1039A000FF252846FFF76BFE0146AFF2480003F003
:1039B00089FB284670BDB7A003F084FBA178BBA0AB
:1039C00003F080FBBDA0616803F07CFB617A4FF4DB
:1039D00016504143BCA0EAE770B5044600F03EF93A
:1039E000FFF7E7FC012000F031F9072000F03EF975
:1039F000152000F02BF9200E00F028F9C4F3074041
:103A0000054600F023F9C4F30720064600F01EF92E
:103A1000E0B200F01BF905EB14603044E1B2084459
:103A20001D3000F02DF9AB4E4FF4FA603460FFF713
:103A3000D5FC08B1457A00E0FF2534604DB1284639
:103A4000FFF71DFE0146AFF2E40003F03BFB284602
:103A500070BDA1A003F036FBF9E72DE9F0410E4659
:103A6000074600F0FBF8FFF7A4FC012000F0EEF899
:103A7000242000F0FBF8182000F0E8F8384600F0A9
:103A8000E5F80024305D00F0E1F8305D641C284466
:103A9000E4B285B2202CF5D378193D3080B200F025
:103AA000EFF84FF4FA60FFF799FC08B1407A58E557
:103AB000FF2056E570B50C46054600F0CFF8FFF73D
:103AC00078FC012000F0C2F8042000F0CFF81920A3
:103AD00000F0BCF8284600F0B9F805F11E0000F02F
:103AE000CFF84FF4FA60FFF779FC48B1417A002231
:103AF00083189B7AA354521CD2B2202AF8D300E038
:103B0000FF21084670BD2DE9F0411E4614460D46C2
:103B1000074600F0A3F8FFF74CFC012000F096F8F0
:103B2000082000F0A3F81B2000F090F8384600F0C1
:103B30008DF8280A00F08AF8E8B200F087F8200A29
:103B400000F084F8E0B200F081F807EB1520E9B24C
:103B5000084400EB1420E1B20844243000F090F84F
:103B60004FF4FA60FFF73AFC58B1C27A837A417A8F
:103B700002EB03223280427B007B02EB002070804C
:103B800000E0FF210846ECE470B5054600F066F859
:103B9000FFF70FFC012000F059F8032000F066F851
:103BA0001D2000F053F8212000F06AF84FF4FA606D
:103BB000FFF714FC38B1C17A827A447A01EB022112
:103BC00029805CB100E0FF242046FFF758FD014644
:103BD000AFF2702003F076FA204670BDC17A807A89
:103BE00001EB002141A0F5E770B5044600F036F87E
:103BF000FFF7DFFB012000F029F8002000F026F895
:103C0000002000F023F8C82000F0AEF83C4A1088ED
:103C100000040BD53B4900200B78EF2B05D14B78E6
:103C2000012B02D18B79072B02D01080012070BDAF
:103C30004B798D7803EB0563CD7809792D0405EB7D
:103C40000121194421601080002070BD2E490A888E
:103C50005206FCD52C49091D0880704710B5EF208D
:103C6000FFF7F4FFBDE810400120EFE710B5044670
:103C7000C0F30720FFF7EAFFE0B2BDE81040E5E738
:103C800010B50446000AFFF7E1FFE0B2BDE81040BE
:103C9000DCE700000D0AC4A3BFE9D7EEB4F3D6B841
:103CA000CEC6C8DDC1BF3D25640000000D0AB6D4F4
:103CB000B1C8B5C8BCB63D25640000000D0AB5D832
:103CC000D6B73D25780000000D0AB2A8CCD8C2CAEC
:103CD0003D2564006C0000200D0AC9E8D6C3B5D8A4
:103CE000D6B7B3C9B9A6A3A1000000000D0AD3D06E
:103CF000D0A7D6B8CEC6B8F6CAFD3D2564000000F0
:103D000068000020980E00200044004010B56FF0BD
:103D1000040000F02EF9204820490068B0FBF1F0C3
:103D20001F49C0B200EB40020870C2EBC0104FF652
:103D3000FF7202EAC000488010BD19490978484363
:103D40004FF0E021486100238B61086940F00100D9
:103D500008610869C20701D0C003FAD5086920F0DC
:103D6000010008618B6170470D49498848434FF055
:103D7000E021486100238B61086940F0010008617F
:103D80000869C20701D0C003FAD5086920F0010014
:103D900008618B61704700004C00002000127A001F
:103DA00070000020704745490A885206FCD5434AF6
:103DB000C1B2121D1180704770B5054686B0012151
:103DC00044F2040000F027FB4FF40070ADF810003F
:103DD00003248DF812401820394E8DF8130004A9E1
:103DE000304600F030F93015ADF8100004208DF8A1
:103DF000130004A9304600F026F925208DF81400A0
:103E00008DF815408DF8164001208DF8170005A893
:103E100000F06FF80020ADF80400ADF80600ADF832
:103E20000800ADF80C000C20244CADF80A000095F9
:103E30006946204600F06EFB012240F225512046E3
:103E400000F0E5FB0121204600F0D7FB06B070BD75
:103E50002DE9F04116460D46074600240CE015F802
:103E6000011B384600F01FFC4021384600F07CFC66
:103E70000028F9D0641CA4B2B442F0D3BDE8F081AC
:103E80000FB44FF4947130B5CBB005466C4650ABCF
:103E900020464F9A03F03AF909E02846641C00F0E6
:103EA00002FC4021284600F05FFC0028F9D0217870
:103EB0000029F2D14BB030BC5DF814FB0038014052
:103EC000000801400648804706480047FEE7FEE735
:103ED000FEE7FEE7FEE7FEE7FEE7FEE7FEE7FEE7BA
:103EE000B91800083101000828490843284908602A
:103EF000704730B50F23C27801780125F2B1244A0A
:103F0000126801F1E02102F4E062C2F5E062120AF7
:103F1000C2F10404D3404278A24084781C40144388
:103F2000220181F80024007800F01F018D40400933
:103F3000800000F1E020C0F8005130BD01F01F000A
:103F400085404809800000F1E020C0F8805130BD74
:103F5000104A114001430E48001F016070470C4A8F
:103F6000121D0029116801D0014300E08143116056
:103F700070474FF0E0210428086903D020F00400C6
:103F80000861704740F00400FAE700000000FA05FD
:103F90000CED00E080FFFF1F8F4910B5884206D16D
:103FA0000121042000F049FA002104203BE08B4964
:103FB000884206D10121082000F03FFA00210820A4
:103FC00031E08749884206D10121102000F035FAFE
:103FD0000021102027E08349884206D101212020BA
:103FE00000F02BFA002120201DE07F49884206D1F5
:103FF0000121402000F021FA0021402013E07B49FC
:10400000884206D10121802000F017FA002180208B
:1040100009E0774988420AD184150121204600F041
:104020000CFA00212046BDE8104000F006BA10BD91
:1040300010B50121084600F000FA0021BDE810404B
:10404000012000F0FAB9F0B5CC78002204F00F039B
:10405000E40601D58C7823430C784FF00F0C14F054
:10406000FF0F4FF0010E1BD005680E880EFA02F408
:104070002640A64210D196000CFA06F725EA07075B
:1040800003FA06F5CE783D43282E02D0482E02D002
:1040900002E0446100E00461521C082AE5D3056097
:1040A0000A88FF2A1CD94468002202F108060EFA89
:1040B00006F50E882E40AE420ED196000CFA06F799
:1040C000BC4303FA06F7CE783C43282E00D1456165
:1040D000CE78482E00D10561521C082AE5D34460F1
:1040E000F0BD4FF6FF710180022181700421C17083
:1040F00070470246002092680A4200D001207047B3
:10410000806880B2704702460020D2680A4200D020
:1041100001207047C06880B27047016170474161FB
:1041200070470AB10161704741617047C1607047D3
:1041300041F4803282618161826181698069704766
:104140002C4B10B51A684FF68074224042EA0010DA
:104150000843186010BD2849C8617047F0B5254C68
:10416000002801DAE36900E06368450D2E0185B29D
:10417000C0F30157B540C0F30342032F05D0C60278
:104180000AD503269640B34307E023F070626368C4
:1041900023F07063636002E0AB4343F0706201B1EF
:1041A0002A43002801DAE261F0BD6260F0BD10B57B
:1041B0008A0721F003040F49120F21440F238C6852
:1041C00093409C438C608B68904003438B6010BD90
:1041D0000949C1F8DC00704700080140000C0140AB
:1041E000001001400014014000180140001C014073
:1041F000002001400000014000002042A548016865
:1042000041F0010101604168A34A11404160016829
:10421000A24A11400160016821F4802101604168D7
:1042200021F4FE0141604FF41F01816070479949FC
:104230000A6822F480320A600A6822F480220A6046
:10424000B0F5803F07D0B0F5802F03D1086840F467
:10425000A02008607047086840F48030F9E7034602
:10426000002059098B4A01290AD002290AD0516A33
:1042700003F01F02012393400B4200D0012070473E
:104280001168F5E7116AF3E718B500204FF4A06450
:1042900000903120FFF7E3FF0099491C0091A142F3
:1042A00001D00028F5D03120FFF7D9FF002800D039
:1042B000012018BD774A116821F0F80141EAC000D9
:1042C00010607047764908607047724B5A6808431F
:1042D00022F47C1210435860704771490866704799
:1042E0006C4A516821F003010143516070476948ED
:1042F000406800F00C007047664A516821F0F001F8
:10430000014351607047634A516821F4E061014301
:10431000516070475F4A516821F4605141EAC00022
:10432000506070475B4A0029517A01D0014300E098
:104330008143517270475A49C1F8D8007047554AB5
:10434000516821F4404101435160704751490022B6
:1043500081F8202081F82020012802D0042802D1F1
:10436000052081F8200070474E4908607047494990
:104370000A6A02430A6270474A4944390860704732
:1043800030B5444A5168484B11F00C0103D0042960
:1043900001D0082901D0036012E05168536801F48C
:1043A00070114FF0020413F4803F04EB914102D0EE
:1043B00053689B0301D53D4B00E03B4B59430160E3
:1043C00051680F2303EA1111394B5C5C0168E1402D
:1043D00041605468072505EA14241C5D21FA04F4A1
:1043E0008460546805EAD4241B5DD940C1605268DA
:1043F000032303EA92322E4B1B1F9A5CB1FBF2F1AE
:10440000016130BD234A0029516901D0014300E018
:104410008143516170471F4A0029916901D00143CE
:1044200000E08143916170471A4A0029D16901D0A7
:10443000014300E08143D1617047164A0029D168E9
:1044400001D0014300E08143D1607047114A002947
:10445000116901D0014300E08143116170471149A6
:104460004039086070470E49C86470470949C871EF
:1044700070470848416A41F0807141627047054ABF
:104480000146002092680A4200D00120704701498D
:1044900088727047001002400000FFF8FFFFF6FE30
:1044A000000042428004424200127A0000093D00AE
:1044B0007C000020C44910B588420AD101218C0338
:1044C0002046FFF7BAFF2046BDE810400021FFF765
:1044D000B4BFBE49884202D101214C0410E0BC495E
:1044E000884202D101218C040AE0BA49884202D1F3
:1044F0000121CC0404E0B84988420AD101210C050D
:104500002046FFF7A3FF2046BDE810400021FFF73B
:104510009DBF10BD30B50446008A85B00D464CF6EF
:10452000FF710840E98801432182A0894EF6F3110A
:104530000840A9882A8911436A8902431143A1814D
:10454000A08A4FF6FF410840A9890143A18268462D
:10455000FFF716FF9C48844201D1039800E00298BF
:10456000A189090400EBC00101EB0010296801D505
:10457000490000E08900B0FBF1F06422B0FBF2F1E9
:1045800009010B096FF018056B4300EB8300A38949
:104590001D044FF0320306D503EBC000B0FBF2F070
:1045A00000F0070005E003EB0010B0FBF2F000F0B4
:1045B0000F000843208105B030BD4FF41651016053
:1045C00000218180C18001810C224281818170475C
:1045D00010B5028A4FF2FF031A400B884C88234320
:1045E0008C88C9880C4323431343038210BD0021E8
:1045F000018041808180C18070470029818902D07B
:1046000041F4005101E021F400518181704710B55F
:10461000C1F3421301F01F040121A140012B07D077
:10462000022B07D01430002A026805D00A4304E0A8
:104630000C30F8E71030F6E78A43026010BD002A1C
:10464000828A01D00A4300E08A4382827047028A4C
:1046500022F00F020282028A0A4302827047828994
:1046600022F40062828182890A4382817047002994
:10467000818902D041F0020101E021F00201818133
:104680007047028A22F020020282028A0A430282D2
:1046900070470029018A02D041F4804101E021F4F1
:1046A000804101827047C1F3080181807047808892
:1046B000C0F308007047818941F001018181704792
:1046C000028BD2B20283028B42EA0121018370473E
:1046D000028B02F47F420283028B0A4302837047FB
:1046E0000029818A02D041F0200101E021F020015F
:1046F000818270470029818A02D041F0100101E0D7
:1047000021F01001818270470029818A02D041F096
:10471000080101E021F008018182704700298189A8
:1047200002D041F4004101E0C1F30E0181817047E4
:104730000029818A02D041F4006101E021F4006186
:1047400081827047828A22F004028282828A0A432E
:10475000828270470029818A02D041F0020101E083
:1047600021F00201818270470246002012880A422D
:1047700000D001207047C9430180704770B501F037
:104780001F0501260024C1F3421306FA05F2012B8E
:104790000FD0022B0FD0838A4FEA112100881342D9
:1047A00006FA01F600EA060001D000B10124204615
:1047B00070BD8389F0E7038AEEE70A0A0121914080
:1047C000C9430180704700000038014000440040A8
:1047D00000480040004C004000500040FD4A116875
:1047E00001F03801014311607047FA490A6822F06C
:1047F00008020A600A6802430A607047F5490A68BD
:1048000022F010020A600A6802430A607047F14809
:10481000F1494160F14941607047EE48EE4941601D
:10482000EE4941607047EB48016941F08001016148
:104830007047E848016941F0800101617047E5492E
:104840000420CA68D20701D001207047CA68520705
:1048500001D502207047C968C906FBD503207047FF
:1048600000B50346FFF7EBFF02E0FFF7E8FF5B1E32
:10487000012803D0002B00D1052000BD002BF4D16E
:10488000FAE770B505464FF430263046FFF7E8FFEB
:10489000042811D1CF4C206940F0020020616561ED
:1048A000206940F0400020613046FFF7D9FF2169C0
:1048B00041F6FD721140216170BD30B54FF43025D5
:1048C0002846FFF7CDFF042810D1C24C206940F0E4
:1048D00004002061206940F0400020612846FFF775
:1048E000BFFF216941F6FB721140216130BD00B567
:1048F0000346FFF7A4FF02E0FFF7A1FF5B1E0128BC
:1049000003D0002B00D1052000BD002BF4D1FAE725
:1049100030B54FF430252846FFF7E9FF042810D1C1
:10492000AC4C206940F004002061206940F0400058
:1049300020612846FFF7DBFF216941F6FB72114039
:10494000216130BDA3490020C969890700D5012034
:10495000704770B5A525FFF7F5FF00B100254FF4AE
:1049600030263046FFF77CFF042827D1994C9A481F
:10497000A0609A48A060206940F020002061206972
:1049800040F0400020613046FFF76AFF41F6EF76C5
:1049900004280ED1206941F6DF71084020612069AA
:1049A00040F0100020618E4805804FF40050FFF762
:1049B00057FF052802D021693140216170BDF8B54B
:1049C000064600204FF4005C00900D466046FFF75D
:1049D00047FF042816D17F4C206940F00100206178
:1049E00035806046FFF73CFF41F6FE77042806D18C
:1049F000B61C280C009630806046FFF731FF216915
:104A000039402161F8BDF0B506464FF400570D4618
:104A10003846FFF725FF04280CD16E4C206940F082
:104A20000100206135803846FFF71AFF2169BA1E60
:104A300011402161F0BDF0B506464FF400570D4618
:104A40003846FFF70DFF042813D1624C6248A0607E
:104A50006248A060206940F010002061358038462F
:104A6000FFF7FEFE052804D0216941F6EF721140E0
:104A70002161F0BD2DE9F041C043C7B2C0F3072664
:104A8000C0F30745040E4FF400584046FFF7E8FE18
:104A900004283CD1DFF83CC14F49CCF808104F49FD
:104AA000CCF80810DCF8101041F01001CCF8101010
:104AB000FF2F07D04A48083007804046FFF7D0FE56
:104AC00004281BD1FF2E07D045480A3006804046F7
:104AD000FFF7C6FE042811D1FF2D07D040480C3047
:104AE00005804046FFF7BCFE042807D1FF2C07D005
:104AF0003B480E3004804046FFF7B2FE052806D042
:104B0000DCF8101041F6EF721140CCF81010BDE83F
:104B1000F08170B505464FF430263046FFF7A0FE11
:104B2000042818D12B4C2C48A0602C48A060206988
:104B300040F020002061206940F0400020613046B4
:104B4000FFF78EFE41F6DF71042805D0052802D05C
:104B500022690A40226170BD2069084020612069F5
:104B600040F0100020611E480DB1002100E0A52199
:104B700001803046FFF774FE0528ECD0216941F62C
:104B8000EF721140216170BDF0B5124C074612481A
:104B900016460D46A0601148A0604FF4005C6046C8
:104BA000FFF75EFE042814D1206940F01000206158
:104BB00035430B493D43891C45F0F80008806046A9
:104BC000FFF74EFE052804D0216941F6EF7211402F
:104BD0002161F0BD0020024023016745AB89EFCD84
:104BE00000F8FF1F1C48C069800870471A48006A17
:104BF0007047194900200968890600D501207047CF
:104C0000154A0029116901D0014300E08143116177
:104C1000704701460020104A012903D0D2680A4299
:104C200003D17047D169C907FBD0012070470A49F9
:104C3000C860704708490420CA68D20701D0012023
:104C40007047CA68520701D502207047C968C90673
:104C5000FBD503207047000000200240424A002993
:104C6000118801D0014300E08143118070473E4824
:104C7000001D018841F01001018070473A48001D75
:104C8000018821F010010180704737481C300088EE
:104C900035491831098840EA0140704700B502469D
:104CA000FFF7E5FF3049100C18310880081D02801D
:104CB0005DF804EBE2E700B50246FFF7D8FF2A49AA
:104CC000C2F3034008310880081D02805DF804EB40
:104CD000D4E700B50246FFF7CAFF2349100C203184
:104CE0000880081D02805DF804EBC7E71E481030FD
:104CF00000880007010B1C481430008808437047E7
:104D00001948001D01888906FCD570471648001D0A
:104D1000018821F00801018001880907FCD570474E
:104D20000146114A0020121D12880A4200D00120BB
:104D300070470D49091D0A8882430A8070470A4955
:104D4000091D0988C2B21140074A1288024202D0E6
:104D500009B101207047002070470349091D0A88E6
:104D600082430A807047000000280040F94910B5CE
:104D7000884202D10121C41486E0B0F1804F09D0ED
:104D8000F54988420DD101210220FFF75FFB002188
:104D9000022064E001210846FFF758FB00210120B2
:104DA0005DE0EE49884206D101210420FFF74EFB69
:104DB0000021042053E0EA49884206D1012108205D
:104DC000FFF744FB0021082049E0E649884206D16C
:104DD00001211020FFF73AFB002110203FE0E249BB
:104DE000884206D101212020FFF730FB002120203E
:104DF00035E0DE49884202D10121441444E0DC4917
:104E0000884202D10121CC043EE0DA49884202D135
:104E100001210C0538E0D849884202D101214C0516
:104E200032E0D649884206D101214020FFF70EFB2F
:104E30000021402013E0D249884206D10121802080
:104E4000FFF704FB0021802009E0CE4988420AD107
:104E5000841501212046FFF7F9FA00212046BDE81C
:104E60001040FFF7F3BAC849884202D101210C046F
:104E70000AE0C649884202D101214C0404E0C44939
:104E800088420AD101218C042046FFF7D6FA204639
:104E9000BDE810400021FFF7D0BA10BD30B5028840
:104EA000AC4CB24DA0420DD0A8420BD0B0F1804F17
:104EB00008D0A94B984205D0A84B984202D0A84BE5
:104EC000984203D122F070034A881A43A54B9842B6
:104ED00006D0A54B984203D022F44073CA881A43E7
:104EE00002808A8882850A880285A0420AD0A84268
:104EF00008D0A54A904205D0A44A904202D0A44AC4
:104F0000904201D1097A01860121818230BD30B5FC
:104F1000028C22F001020284028C8388048B22F02E
:104F2000020224F073050C882C430D8915434A882E
:104F30002A43884DA8420BD08C4DA84208D0924DF0
:104F4000A84205D0914DA84202D0914DA8420DD162
:104F500022F008054A8923F440732A4322F004050D
:104F60008A882A438D891D43CB892B438380048300
:104F7000C9888186028430BD70B5028C22F010028F
:104F80000284028C8388048B0D8824F4E6464FF655
:104F9000FF7404EA052535430E8922F0200204EA55
:104FA000061616434A8804EA02123243694EB0429A
:104FB00002D06E4EB04215D122F080064A8923F409
:104FC000406304EA0212324322F040068A8804EA6F
:104FD000021232438E8904EA86061E43CB8904EA14
:104FE0008303334383800583C9880187028470BDAE
:104FF00070B5028C22F480720284028C8388848BC8
:105000000D8824F0730425430E894FF6FF7422F4B3
:10501000007204EA062616434A8804EA0222324352
:105020004C4EB04202D0514EB04215D122F400662F
:105030004A8923F4405304EA0222324322F4806670
:105040008A8804EA022232438E8904EA06161E4345
:10505000CB8904EA0313334383808583C98881871E
:10506000028470BD70B5028C22F480520284058CDB
:105070008288838B0C8823F4E6464FF6FF7303EA9D
:105080000424344325F400560D8903EA05353543DD
:105090004E8803EA06362E432E4DA84202D0334DE9
:1050A000A84205D122F480458A8903EA82122A4364
:1050B00082808483C988A0F84010068470BD828BEA
:1050C00022F440628283828B4FF6FF7303EA012150
:1050D0000A4382837047828B22F00C028283828B88
:1050E0000A4382837047028B22F440620283028B60
:1050F0004FF6FF7303EA01210A4302837047F0B5BC
:10510000048C24F010040484078B048C4FF6FF7584
:1051100027F4734705EA03333B4305EA02221A43A7
:105120000C4B05EA011698420ED0104B98420BD05A
:10513000B0F1804F08D0084B984205D0074B9842F9
:1051400002D0074B984225D124F02001314341F091
:10515000100124E0002C0140000400400008004041
:10516000000C0040001000400014004000340140DA
:10517000004C014000500140005401400018004024
:10518000001C00400020004000400140004401405D
:105190000048014024F0A0030B4343F010010283B8
:1051A0000184F0BD028B22F00C020283028B0A43C1
:1051B0000283704770B5048C24F001040484058BCD
:1051C000048C4FF6FF7606EA0313134325F0F3052C
:1051D000F84A2B4390420ED0F74A90420BD0B0F1E0
:1051E000804F08D0F54A904205D0F54A904202D04F
:1051F000F44A904202D124F0020201E024F00A02B3
:105200000A4342F001010383018470BD2DE9F84F88
:105210000D4604460888E74FDFF89CC3DFF89C83FF
:10522000DFF89C934988AA882B894FF0804A48B3BD
:1052300004282FD04FF6FF760828934632D0208CD2
:105240009E4620F480502084A38B208C06EA0132F5
:10525000009223F4734306EA0B221A4306EA0E3344
:105260001343BC420AD0644508D0544506D0444597
:1052700004D04C4502D0D34A944242D120F400508D
:10528000009940E02046FFF795FFE9882046BDE8F9
:10529000F84F87E72046FFF732FFE9882046BDE850
:1052A000F84F20E7208C20F480702084B4F81CE0B4
:1052B000208C06EA031306EA01222EF0F30E43EADD
:1052C0000B0343EA0E030092BC420AD0644508D0A7
:1052D000544506D0444504D04C4502D0B94A9442C6
:1052E00003D120F40070009901E020F4206008430D
:1052F00040F48070A3832084E9882046BDE8F84FFD
:10530000E9E620F40240084340F48050A38320845F
:10531000E9882046BDE8F84FD1E62DE9F0410C467A
:10532000002649880746012501B90226A288012ADC
:1053300000D10225208823890028384610D0FFF7A5
:10534000DEFEE1883846FFF7CEFE23892A46314645
:105350003846FFF72FFFE1883846BDE8F04121E7E6
:10536000FFF728FFE1883846FFF71CFF23892A460C
:1053700031463846FFF7C3FEE1883846BDE8F041C4
:10538000B1E610B50A884B88CC881A438B88234332
:105390001A430B891A434B8989891A430A43A0F897
:1053A000442010BD4FF6FF71818000210180C18033
:1053B0004180017270470021018041808180C1805D
:1053C000018141818181C18170470021018041803B
:1053D00001228280C18001817047002101804180CB
:1053E0008180C180018141818181704700290188CC
:1053F00002D041F0010101E021F00101018070477C
:10540000002930F8441F02D041F4004101E0C1F30B
:105410000E0101807047002A828901D00A4300E012
:105420008A4382817047818270471143A0F84810F7
:105430007047002A828901D00A4300E08A438281B2
:105440007047018921F0070101817047028922F02C
:1054500070020A430281704700B50346FFF7F6FF6A
:10546000188940F00700188100BD70B516460D463A
:10547000602904464FF0010231460AD0FFF79AFE38
:1054800029462046FFF7E2FF208940F007002081EF
:1054900070BDFFF734FEF3E730B504894FF6FF75B2
:1054A00005EA03231343E4B20B432343038130BDD6
:1054B00010B50446FFF7F0FF208940F07700208107
:1054C00010BD10B50446FFF7E7FF208940F4804087
:1054D000208110BD018582827047028822F070020F
:1054E0000A430280704770B50589048B068C25F04D
:1054F00007050D434FF6FC410C4040F201110C43EF
:105500004FF6FF7101EA031126F0220611433143E1
:1055100005810483018470BD028B22F070020A436E
:1055200002837047028B4FF6FF7322F4E04203EAD6
:105530000121114301837047828B22F070020A43DC
:1055400082837047828B4FF6FF7322F4E04203EAB6
:1055500001211143818370470029018802D041F065
:10556000800101E021F080010180704700298188DD
:1055700002D041F0040101E021F004018180704774
:105580000029818802D041F0080101E021F00801E2
:10559000818070470029818802D041F0010101E03B
:1055A00021F0010181807047028B22F008020A433A
:1055B00002837047002C0140003401400004004089
:1055C00000080040000C0040028B4FF6FF7322F4ED
:1055D000006203EA012111430183EAE7828B22F092
:1055E00008020A438283E4E7828B4FF6FF7322F4BA
:1055F000006203EA012111438183DAE7028B22F082
:1056000004020A430283D4E7028B4FF6FF7322F4AD
:10561000806203EA012111430183CAE7828B22F0F1
:1056200004020A438283C4E7828B4FF6FF7322F49D
:10563000806203EA012111438183BAE7028B22F0E1
:1056400080020A430283B4E7028B4FF6FF73C2F372
:105650000E0203EA012111430183AAE7828B22F0A3
:1056600080020A438283A4E7828B4FF6FF73C2F362
:105670000E0203EA0121114381839AE7028C22F092
:1056800002020A43028494E7028C22F008020A43D1
:1056900002848EE7028C4FF6FF7322F0200203EAA9
:1056A00001111143018484E7028C4FF6FF7322F04D
:1056B000800203EA0111114301847AE7028C4FF65C
:1056C000FF7322F4007203EA01211143018470E7A1
:1056D000028C4FF6FF7322F4006203EA01211143AA
:1056E000018466E7028C4FF6FF7322F4005203EA4E
:1056F0000131114301845CE710B50123048C8B4018
:105700009C430484038C8A401343038410BD10B56A
:105710000423048C8B409C430484038C8A401343F1
:10572000038410BD30B50124058C00F118038C40B2
:10573000A543058489B108290FD0091FC1F34E0084
:105740001844016821F4E041016001684FF6FF73DD
:1057500003EA02221143016030BD03EB51000168EE
:1057600021F0700101600168F4E70029018802D08E
:1057700041F0020101E021F00201018019E7002956
:10578000018802D041F0040101E021F00401018010
:105790000FE70029818802D041F0800101E021F06B
:1057A0008001818005E7028822F0080202800288D9
:1057B0000A430280FDE6828822F07002828082889D
:1057C0000A438280F5E6028922F0070202810289FB
:1057D0000A430281EDE6028922F0800202810289F9
:1057E0000A430281E5E68184E3E68185E1E681867C
:1057F000DFE60187DDE68187DBE6A0F84010D8E62A
:10580000028822F44072028002880A430280D0E6B5
:10581000808ECEE6008FCCE6808FCAE6B0F84000DE
:10582000C7E6808CC5E6008DC3E602460020128ADA
:105830000A4200D00120BCE6C9430182B9E6024613
:105840000020138A92890B4202EA010202D0002A48
:1058500000D00120ADE6C9430182AAE610B50120BF
:10586000FEF7FDFDBDE810400020FEF7F8BD1F4922
:10587000086070471D49091F086070471B49843143
:10588000086070471A4A118821F460710143118041
:105890007047174A118821F07F010143118070473A
:1058A000134A08B52C3A10440090016008BD104915
:1058B00008B52C3908440090008808BD0B489C307E
:1058C0000068C0B270470A480830018841F0010101
:1058D000018070470548A0300068C0B27047044896
:1058E0000830018841F002010180704704860D42B2
:1058F0002C6C004010B501210C072046FEF7A6FDD8
:105900002046BDE810400021FEF7A0BD21490862F5
:1059100070472049086170471F4A116821F0E00173
:105920000143116070471B49C1F8A00070471A4B32
:105930001A6822F0030202431A601848026842F013
:1059400004020260012905D020BF016821F0040192
:105950000160704730BFF8E70F48016841F004016B
:105960000160016841F0020101600C48016841F0EA
:105970000401016030BF7047074A014600205268A9
:105980000A4200D00120704703490A6842EA8000B9
:105990000860704700000E420070004010ED00E00B
:1059A00030B57A488BB006AD0FC885E80F000021EE
:1059B00006A8CDE904100124029103910091019100
:1059C000630273A275A177A000F09AF9C0B9079895
:1059D00081B2069800F0BCFEFA2000F0D1FE05006E
:1059E00009D000F062F9022805D1284600F0CDFA6E
:1059F000002800D8002406A800F019F900F072FE73
:105A00000BB0204630BD70B5C0B005464FF480766F
:105A10003146684600F0B9FF64A1284601F003F85A
:105A20003146684600F0B1FF614C62A168462278B9
:105A300001F058FB6946284600F0B2FF314668463F
:105A400000F0A3FF62785DA1684601F04BFB694658
:105A5000284600F0A5FF284600F0CAFF40B0C0B2BB
:105A600070BD30B585B000200190029003900446CF
:105A70000490FF21544800F088FF5348FFF7C3FF0C
:105A800005001DD001A8009005230022294640A052
:105A900000F00AFB002813D14B48AC4208DA015D44
:105AA000DDE90123D1540299491C641C0291F4E7F9
:105AB000029881B2019800F04BFE01A800F0B7F8FF
:105AC00005B030BD2DE9F0418AB00026009604965D
:105AD00007460196029603960596ADF82460344673
